{
  "contractName": "Counter",
  "abi": [
    {
      "inputs": [],
      "payable": false,
      "stateMutability": "nonpayable",
      "type": "constructor"
    },
    {
      "constant": false,
      "inputs": [],
      "name": "increase",
      "outputs": [],
      "payable": false,
      "stateMutability": "nonpayable",
      "type": "function"
    },
    {
      "constant": true,
      "inputs": [],
      "name": "get",
      "outputs": [
        {
          "name": "",
          "type": "uint256"
        }
      ],
      "payable": false,
      "stateMutability": "view",
      "type": "function"
    }
  ],
  "bytecode": "0x6080604052348015600f57600080fd5b506000808190555060a2806100256000396000f3fe6080604052348015600f57600080fd5b506004361060325760003560e01c80636d4ce63c146037578063e8927fbc146053575b600080fd5b603d605b565b6040518082815260200191505060405180910390f35b60596064565b005b60008054905090565b6001600080828254019250508190555056fea165627a7a72305820601c84cecdae23cd20e58a351df7aca762bf044b01b6d8b78c9ae5f5b24e0ebd0029",
  "source": "pragma solidity >=0.4.21 <0.7.0;\n\n// 声明\ncontract Counter {\n  uint256 counter;\n\n  // 部署时调用\n  constructor() public {\n    counter = 0;\n  }\n\n  // 增加\n  function increase() public {\n    counter += 1;\n  }\n\n  // 返回counter\n  function get() public view returns(uint256) {\n    return counter;\n  }\n\n}",
  "sourcePath": "/Users/xiatian/Code/ethereum/mydapp/contracts/Counter.sol",
  "compiler": {
    "name": "solc",
    "version": "0.5.8+commit.23d335f2.Emscripten.clang"
  },
  "schemaVersion": "3.0.16",
  "updatedAt": "2020-04-28T17:57:33.593Z",
  "devdoc": {
    "methods": {}
  },
  "userdoc": {
    "methods": {}
  }
}