{
  "contractName": "Auction",
  "abi": [
    {
      "constant": true,
      "inputs": [],
      "name": "auctionId",
      "outputs": [
        {
          "name": "",
          "type": "uint256"
        }
      ],
      "payable": false,
      "stateMutability": "view",
      "type": "function"
    },
    {
      "constant": true,
      "inputs": [
        {
          "name": "",
          "type": "address"
        }
      ],
      "name": "pendingReturns",
      "outputs": [
        {
          "name": "",
          "type": "uint256"
        }
      ],
      "payable": false,
      "stateMutability": "view",
      "type": "function"
    },
    {
      "constant": true,
      "inputs": [],
      "name": "beneficiary",
      "outputs": [
        {
          "name": "",
          "type": "address"
        }
      ],
      "payable": false,
      "stateMutability": "view",
      "type": "function"
    },
    {
      "constant": true,
      "inputs": [],
      "name": "auctionEndTime",
      "outputs": [
        {
          "name": "",
          "type": "uint256"
        }
      ],
      "payable": false,
      "stateMutability": "view",
      "type": "function"
    },
    {
      "constant": true,
      "inputs": [],
      "name": "highestBidder",
      "outputs": [
        {
          "name": "",
          "type": "address"
        }
      ],
      "payable": false,
      "stateMutability": "view",
      "type": "function"
    },
    {
      "constant": true,
      "inputs": [],
      "name": "auctionName",
      "outputs": [
        {
          "name": "",
          "type": "string"
        }
      ],
      "payable": false,
      "stateMutability": "view",
      "type": "function"
    },
    {
      "constant": true,
      "inputs": [],
      "name": "highestBid",
      "outputs": [
        {
          "name": "",
          "type": "uint256"
        }
      ],
      "payable": false,
      "stateMutability": "view",
      "type": "function"
    },
    {
      "inputs": [
        {
          "name": "_biddingTime",
          "type": "uint256"
        },
        {
          "name": "_beneficiary",
          "type": "address"
        }
      ],
      "payable": false,
      "stateMutability": "nonpayable",
      "type": "constructor"
    },
    {
      "anonymous": false,
      "inputs": [
        {
          "indexed": false,
          "name": "bidder",
          "type": "address"
        },
        {
          "indexed": false,
          "name": "amount",
          "type": "uint256"
        }
      ],
      "name": "HighestBidIncreased",
      "type": "event"
    },
    {
      "anonymous": false,
      "inputs": [
        {
          "indexed": false,
          "name": "winner",
          "type": "address"
        },
        {
          "indexed": false,
          "name": "amount",
          "type": "uint256"
        }
      ],
      "name": "AuctionEnded",
      "type": "event"
    },
    {
      "constant": true,
      "inputs": [],
      "name": "get",
      "outputs": [
        {
          "name": "_beneficiary",
          "type": "address"
        },
        {
          "name": "_auctionEndTime",
          "type": "uint256"
        },
        {
          "name": "_now",
          "type": "uint256"
        }
      ],
      "payable": false,
      "stateMutability": "view",
      "type": "function"
    },
    {
      "constant": true,
      "inputs": [],
      "name": "getAuctionInfo",
      "outputs": [
        {
          "name": "",
          "type": "string"
        }
      ],
      "payable": false,
      "stateMutability": "view",
      "type": "function"
    },
    {
      "constant": true,
      "inputs": [],
      "name": "getHighest",
      "outputs": [
        {
          "name": "_highestBidder",
          "type": "address"
        },
        {
          "name": "_highestBid",
          "type": "uint256"
        }
      ],
      "payable": false,
      "stateMutability": "view",
      "type": "function"
    },
    {
      "constant": false,
      "inputs": [],
      "name": "bid",
      "outputs": [],
      "payable": true,
      "stateMutability": "payable",
      "type": "function"
    },
    {
      "constant": false,
      "inputs": [
        {
          "name": "account",
          "type": "address"
        }
      ],
      "name": "withdraw",
      "outputs": [],
      "payable": false,
      "stateMutability": "nonpayable",
      "type": "function"
    },
    {
      "constant": false,
      "inputs": [],
      "name": "auctionEnd",
      "outputs": [],
      "payable": false,
      "stateMutability": "nonpayable",
      "type": "function"
    }
  ],
  "bytecode": "0x608060405234801561001057600080fd5b50604051604080610e208339810180604052604081101561003057600080fd5b81019080805190602001909291908051906020019092919050505080600260006101000a81548173ffffffffffffffffffffffffffffffffffffffff021916908373ffffffffffffffffffffffffffffffffffffffff160217905550816003819055506040518060600160405280602d8152602001610df3602d9139600090805190602001906100c19291906100d0565b50600180819055505050610175565b828054600181600116156101000203166002900490600052602060002090601f016020900481019282601f1061011157805160ff191683800117855561013f565b8280016001018555821561013f579182015b8281111561013e578251825591602001919060010190610123565b5b50905061014c9190610150565b5090565b61017291905b8082111561016e576000816000905550600101610156565b5090565b90565b610c6f806101846000396000f3fe6080604052600436106100c25760003560e01c806351cff8d91161007f578063a57e2d4d11610059578063a57e2d4d14610307578063c63d99db14610365578063d57bde79146103f5578063d94a350514610420576100c2565b806351cff8d9146101fa5780636d4ce63c1461024b57806391f90157146102b0576100c2565b806310782f8f146100c75780631998aeef146100f257806326b387bb146100fc5780632a24f46c1461016157806338af3eed146101785780634b449cba146101cf575b600080fd5b3480156100d357600080fd5b506100dc6104b0565b6040518082815260200191505060405180910390f35b6100fa6104b6565b005b34801561010857600080fd5b5061014b6004803603602081101561011f57600080fd5b81019080803573ffffffffffffffffffffffffffffffffffffffff1690602001909291905050506106f8565b6040518082815260200191505060405180910390f35b34801561016d57600080fd5b50610176610710565b005b34801561018457600080fd5b5061018d610905565b604051808273ffffffffffffffffffffffffffffffffffffffff1673ffffffffffffffffffffffffffffffffffffffff16815260200191505060405180910390f35b3480156101db57600080fd5b506101e461092b565b6040518082815260200191505060405180910390f35b34801561020657600080fd5b506102496004803603602081101561021d57600080fd5b81019080803573ffffffffffffffffffffffffffffffffffffffff169060200190929190505050610931565b005b34801561025757600080fd5b50610260610a46565b604051808473ffffffffffffffffffffffffffffffffffffffff1673ffffffffffffffffffffffffffffffffffffffff168152602001838152602001828152602001935050505060405180910390f35b3480156102bc57600080fd5b506102c5610a80565b604051808273ffffffffffffffffffffffffffffffffffffffff1673ffffffffffffffffffffffffffffffffffffffff16815260200191505060405180910390f35b34801561031357600080fd5b5061031c610aa6565b604051808373ffffffffffffffffffffffffffffffffffffffff1673ffffffffffffffffffffffffffffffffffffffff1681526020018281526020019250505060405180910390f35b34801561037157600080fd5b5061037a610ada565b6040518080602001828103825283818151815260200191508051906020019080838360005b838110156103ba57808201518184015260208101905061039f565b50505050905090810190601f1680156103e75780820380516001836020036101000a031916815260200191505b509250505060405180910390f35b34801561040157600080fd5b5061040a610b78565b6040518082815260200191505060405180910390f35b34801561042c57600080fd5b50610435610b7e565b6040518080602001828103825283818151815260200191508051906020019080838360005b8381101561047557808201518184015260208101905061045a565b50505050905090810190601f1680156104a25780820380516001836020036101000a031916815260200191505b509250505060405180910390f35b60015481565b60035442111561052e576040517f08c379a00000000000000000000000000000000000000000000000000000000081526004018080602001828103825260168152602001807f41756374696f6e20616c726561647920656e6465642e0000000000000000000081525060200191505060405180910390fd5b60055434116105a5576040517f08c379a000000000000000000000000000000000000000000000000000000000815260040180806020018281038252601e8152602001807f546865726520616c7265616479206973206120686967686572206269642e000081525060200191505060405180910390fd5b6000600554146106435760055460066000600460009054906101000a900473ffffffffffffffffffffffffffffffffffffffff1673ffffffffffffffffffffffffffffffffffffffff1673ffffffffffffffffffffffffffffffffffffffff16815260200190815260200160002081905550610642600460009054906101000a900473ffffffffffffffffffffffffffffffffffffffff16610931565b5b33600460006101000a81548173ffffffffffffffffffffffffffffffffffffffff021916908373ffffffffffffffffffffffffffffffffffffffff160217905550346005819055507ff4757a49b326036464bec6fe419a4ae38c8a02ce3e68bf0809674f6aab8ad3003334604051808373ffffffffffffffffffffffffffffffffffffffff1673ffffffffffffffffffffffffffffffffffffffff1681526020018281526020019250505060405180910390a1565b60066020528060005260406000206000915090505481565b600354421015610788576040517f08c379a00000000000000000000000000000000000000000000000000000000081526004018080602001828103825260168152602001807f41756374696f6e206e6f742079657420656e6465642e0000000000000000000081525060200191505060405180910390fd5b600760009054906101000a900460ff16156107ee576040517f08c379a0000000000000000000000000000000000000000000000000000000008152600401808060200182810382526023815260200180610c216023913960400191505060405180910390fd5b6001600760006101000a81548160ff0219169083151502179055507fdaec4582d5d9595688c8c98545fdd1c696d41c6aeaeb636737e84ed2f5c00eda600460009054906101000a900473ffffffffffffffffffffffffffffffffffffffff16600554604051808373ffffffffffffffffffffffffffffffffffffffff1673ffffffffffffffffffffffffffffffffffffffff1681526020018281526020019250505060405180910390a1600260009054906101000a900473ffffffffffffffffffffffffffffffffffffffff1673ffffffffffffffffffffffffffffffffffffffff166108fc6005549081150290604051600060405180830381858888f19350505050158015610902573d6000803e3d6000fd5b50565b600260009054906101000a900473ffffffffffffffffffffffffffffffffffffffff1681565b60035481565b6000600660008373ffffffffffffffffffffffffffffffffffffffff1673ffffffffffffffffffffffffffffffffffffffff1681526020019081526020016000205490506000811115610a42576000600660008473ffffffffffffffffffffffffffffffffffffffff1673ffffffffffffffffffffffffffffffffffffffff168152602001908152602001600020819055508173ffffffffffffffffffffffffffffffffffffffff166108fc829081150290604051600060405180830381858888f19350505050610a415780600660008473ffffffffffffffffffffffffffffffffffffffff1673ffffffffffffffffffffffffffffffffffffffff168152602001908152602001600020819055505b5b5050565b6000806000600260009054906101000a900473ffffffffffffffffffffffffffffffffffffffff1660035442829250925092509250909192565b600460009054906101000a900473ffffffffffffffffffffffffffffffffffffffff1681565b600080600460009054906101000a900473ffffffffffffffffffffffffffffffffffffffff16600554819150915091509091565b60008054600181600116156101000203166002900480601f016020809104026020016040519081016040528092919081815260200182805460018160011615610100020316600290048015610b705780601f10610b4557610100808354040283529160200191610b70565b820191906000526020600020905b815481529060010190602001808311610b5357829003601f168201915b505050505081565b60055481565b606060008054600181600116156101000203166002900480601f016020809104026020016040519081016040528092919081815260200182805460018160011615610100020316600290048015610c165780601f10610beb57610100808354040283529160200191610c16565b820191906000526020600020905b815481529060010190602001808311610bf957829003601f168201915b505050505090509056fe61756374696f6e456e642068617320616c7265616479206265656e2063616c6c65642ea165627a7a723058206f41f2180fc3fc92399bac6c303467d4ead61241ca985ce776858fd114cb23d40029e78292e9b8a1e697a0e6958ce997aae79e8e32346be7baafe9929be59088e98791e78b97e79cbce79a84e58da1",
  "source": "pragma solidity >=0.4.21 <0.7.0;\n\ncontract Auction {\n\n    // 拍卖名称\n    string public auctionName;\n    // 拍卖 id\n    uint256 public auctionId;\n\n    // 受益者 出售者\n    address payable public beneficiary;\n\n    // 结束时间\n    uint256 public auctionEndTime;\n\n    // 最高出价格者\n    address payable public highestBidder;\n    // 最高价格\n    uint256 public highestBid;\n\n    // 允许撤回之前的出价\n    // 该map记录每个竞价者的最高出价\n    mapping(address => uint256) public pendingReturns;\n\n    // 竞价结束标识位\n    bool ended;\n\n    // event 最高价发生变化时\n    event HighestBidIncreased(address bidder, uint256 amount);\n\n    // 事件二：竞价结束时\n    event AuctionEnded(address winner, uint256 amount);\n\n    constructor(uint256 _biddingTime, address payable _beneficiary) public {\n        beneficiary = _beneficiary;\n        auctionEndTime = _biddingTime;\n        auctionName = \"炒鸡无敌闪瞎24k纯钛合金狗眼的卡\";\n        auctionId = 1;\n    }\n\n    function get()\n        public\n        view\n        returns (address _beneficiary, uint256 _auctionEndTime, uint256 _now)\n    {\n        return (beneficiary, auctionEndTime, now);\n    }\n\n    function getAuctionInfo() public view returns (string memory) {\n        return auctionName;\n    }\n\n    function getHighest()\n        public\n        view\n        returns (address _highestBidder, uint256 _highestBid)\n    {\n        return (highestBidder, highestBid);\n    }\n\n    // 拍卖\n    // 退还上一个用户的费用\n    // 清算\n\n    // 拍卖\n    function bid() public payable {\n        // 关键字payable用来标明合约函数可以接受Ether币.\n        require(now <= auctionEndTime, \"Auction already ended.\");\n\n        // 如果价格不超过最高价，钱会被退回.\n        require(msg.value > highestBid, \"There already is a higher bid.\");\n\n        if (highestBid != 0) {\n            pendingReturns[highestBidder] = highestBid;\n            // 退还上一个用户的钱\n            withdraw(highestBidder);\n        }\n\n\n        highestBidder = msg.sender;\n        highestBid = msg.value;\n\n        emit HighestBidIncreased(msg.sender, msg.value);\n\n    }\n\n    /// 撤回一个被超过的价格.\n    function withdraw(address payable account) public {\n        // 获取多少钱\n        uint256 amount = pendingReturns[account];\n        if (amount > 0) {\n            // 安全编写须知！！！\n            // 一定要先将map中的值清零，因为接收者可以在send()函数返回前利用接受合约重新调用withdraw()函数\n            // 从而发生“多转”的bug，即重放攻击！！！\n\n            pendingReturns[account] = 0;\n\n            if (!account.send(amount)) {\n                // No need to call throw here, just reset the amount owing\n                pendingReturns[account] = amount;\n            }\n        }\n    }\n\n    function auctionEnd() public {\n        // 在于其他合约交互时(i.e. 调用合约函数或转账) 可以分成3个阶段:\n        // 1. 检查条件；\n        // 2. 执行动作； (potentially changing conditions)\n        // 3. 与其他合约交互；\n        // 安全设计！！！\n        // 如果这三个阶段混到一块了，其他合约就可能调回当前合约从而修改状态变量。\n        // 这会导致一些过程（i.e. 以太币转账）被执行多次。\n\n        // 如果内部函数有和外部合约交互的过程，那么也该遵循以上准则。\n\n        // 1. conditions\n        require(now >= auctionEndTime, \"Auction not yet ended.\");\n        require(!ended, \"auctionEnd has already been called.\");\n\n        // 2.Effects\n        ended = true;\n        emit AuctionEnded(highestBidder, highestBid);\n\n        // 3.Interaction\n        beneficiary.transfer(highestBid);\n    }\n}\n",
  "sourcePath": "/Users/xiatian/Code/ethereum/auction/contracts/Auction.sol",
  "compiler": {
    "name": "solc",
    "version": "0.5.8+commit.23d335f2.Emscripten.clang"
  },
  "schemaVersion": "3.0.16",
  "updatedAt": "2020-05-06T11:28:48.897Z",
  "devdoc": {
    "methods": {}
  },
  "userdoc": {
    "methods": {
      "withdraw(address)": {
        "notice": "撤回一个被超过的价格."
      }
    }
  }
}