{
  "contractName": "Auction",
  "abi": [
    {
      "constant": true,
      "inputs": [
        {
          "name": "",
          "type": "address"
        }
      ],
      "name": "pendingReturns",
      "outputs": [
        {
          "name": "",
          "type": "uint256"
        }
      ],
      "payable": false,
      "stateMutability": "view",
      "type": "function"
    },
    {
      "constant": true,
      "inputs": [],
      "name": "beneficiary",
      "outputs": [
        {
          "name": "",
          "type": "address"
        }
      ],
      "payable": false,
      "stateMutability": "view",
      "type": "function"
    },
    {
      "constant": true,
      "inputs": [],
      "name": "auctionEndTime",
      "outputs": [
        {
          "name": "",
          "type": "uint256"
        }
      ],
      "payable": false,
      "stateMutability": "view",
      "type": "function"
    },
    {
      "constant": true,
      "inputs": [],
      "name": "highestBidder",
      "outputs": [
        {
          "name": "",
          "type": "address"
        }
      ],
      "payable": false,
      "stateMutability": "view",
      "type": "function"
    },
    {
      "constant": true,
      "inputs": [],
      "name": "highestBid",
      "outputs": [
        {
          "name": "",
          "type": "uint256"
        }
      ],
      "payable": false,
      "stateMutability": "view",
      "type": "function"
    },
    {
      "inputs": [
        {
          "name": "_biddingTime",
          "type": "uint256"
        },
        {
          "name": "_beneficiary",
          "type": "address"
        }
      ],
      "payable": false,
      "stateMutability": "nonpayable",
      "type": "constructor"
    },
    {
      "anonymous": false,
      "inputs": [
        {
          "indexed": false,
          "name": "bidder",
          "type": "address"
        },
        {
          "indexed": false,
          "name": "amount",
          "type": "uint256"
        }
      ],
      "name": "HighestBidIncreased",
      "type": "event"
    },
    {
      "anonymous": false,
      "inputs": [
        {
          "indexed": false,
          "name": "winner",
          "type": "address"
        },
        {
          "indexed": false,
          "name": "amount",
          "type": "uint256"
        }
      ],
      "name": "AuctionEnded",
      "type": "event"
    },
    {
      "constant": true,
      "inputs": [],
      "name": "get",
      "outputs": [
        {
          "name": "_beneficiary",
          "type": "address"
        },
        {
          "name": "_auctionEndTime",
          "type": "uint256"
        },
        {
          "name": "_now",
          "type": "uint256"
        }
      ],
      "payable": false,
      "stateMutability": "view",
      "type": "function"
    },
    {
      "constant": true,
      "inputs": [],
      "name": "getHighest",
      "outputs": [
        {
          "name": "_highestBidder",
          "type": "address"
        },
        {
          "name": "_highestBid",
          "type": "uint256"
        }
      ],
      "payable": false,
      "stateMutability": "view",
      "type": "function"
    },
    {
      "constant": false,
      "inputs": [],
      "name": "bid",
      "outputs": [],
      "payable": true,
      "stateMutability": "payable",
      "type": "function"
    },
    {
      "constant": false,
      "inputs": [],
      "name": "withdraw",
      "outputs": [
        {
          "name": "",
          "type": "bool"
        }
      ],
      "payable": false,
      "stateMutability": "nonpayable",
      "type": "function"
    },
    {
      "constant": false,
      "inputs": [],
      "name": "auctionEnd",
      "outputs": [],
      "payable": false,
      "stateMutability": "nonpayable",
      "type": "function"
    }
  ],
  "bytecode": "0x608060405234801561001057600080fd5b506040516040806109948339810180604052604081101561003057600080fd5b810190808051906020019092919080519060200190929190505050806000806101000a81548173ffffffffffffffffffffffffffffffffffffffff021916908373ffffffffffffffffffffffffffffffffffffffff1602179055508160018190555050506108f1806100a36000396000f3fe6080604052600436106100915760003560e01c80634b449cba116100595780634b449cba146101a25780636d4ce63c146101cd57806391f9015714610232578063a57e2d4d14610289578063d57bde79146102e757610091565b80631998aeef1461009657806326b387bb146100a05780632a24f46c1461010557806338af3eed1461011c5780633ccfd60b14610173575b600080fd5b61009e610312565b005b3480156100ac57600080fd5b506100ef600480360360208110156100c357600080fd5b81019080803573ffffffffffffffffffffffffffffffffffffffff1690602001909291905050506104b1565b6040518082815260200191505060405180910390f35b34801561011157600080fd5b5061011a6104c9565b005b34801561012857600080fd5b506101316106bd565b604051808273ffffffffffffffffffffffffffffffffffffffff1673ffffffffffffffffffffffffffffffffffffffff16815260200191505060405180910390f35b34801561017f57600080fd5b506101886106e2565b604051808215151515815260200191505060405180910390f35b3480156101ae57600080fd5b506101b7610806565b6040518082815260200191505060405180910390f35b3480156101d957600080fd5b506101e261080c565b604051808473ffffffffffffffffffffffffffffffffffffffff1673ffffffffffffffffffffffffffffffffffffffff168152602001838152602001828152602001935050505060405180910390f35b34801561023e57600080fd5b50610247610845565b604051808273ffffffffffffffffffffffffffffffffffffffff1673ffffffffffffffffffffffffffffffffffffffff16815260200191505060405180910390f35b34801561029557600080fd5b5061029e61086b565b604051808373ffffffffffffffffffffffffffffffffffffffff1673ffffffffffffffffffffffffffffffffffffffff1681526020018281526020019250505060405180910390f35b3480156102f357600080fd5b506102fc61089c565b6040518082815260200191505060405180910390f35b6003543411610389576040517f08c379a000000000000000000000000000000000000000000000000000000000815260040180806020018281038252601e8152602001807f546865726520616c7265616479206973206120686967686572206269642e000081525060200191505060405180910390fd5b6000600354146103fc5760035460046000600260009054906101000a900473ffffffffffffffffffffffffffffffffffffffff1673ffffffffffffffffffffffffffffffffffffffff1673ffffffffffffffffffffffffffffffffffffffff168152602001908152602001600020819055505b33600260006101000a81548173ffffffffffffffffffffffffffffffffffffffff021916908373ffffffffffffffffffffffffffffffffffffffff160217905550346003819055507ff4757a49b326036464bec6fe419a4ae38c8a02ce3e68bf0809674f6aab8ad3003334604051808373ffffffffffffffffffffffffffffffffffffffff1673ffffffffffffffffffffffffffffffffffffffff1681526020018281526020019250505060405180910390a1565b60046020528060005260406000206000915090505481565b600154421015610541576040517f08c379a00000000000000000000000000000000000000000000000000000000081526004018080602001828103825260168152602001807f41756374696f6e206e6f742079657420656e6465642e0000000000000000000081525060200191505060405180910390fd5b600560009054906101000a900460ff16156105a7576040517f08c379a00000000000000000000000000000000000000000000000000000000081526004018080602001828103825260238152602001806108a36023913960400191505060405180910390fd5b6001600560006101000a81548160ff0219169083151502179055507fdaec4582d5d9595688c8c98545fdd1c696d41c6aeaeb636737e84ed2f5c00eda600260009054906101000a900473ffffffffffffffffffffffffffffffffffffffff16600354604051808373ffffffffffffffffffffffffffffffffffffffff1673ffffffffffffffffffffffffffffffffffffffff1681526020018281526020019250505060405180910390a16000809054906101000a900473ffffffffffffffffffffffffffffffffffffffff1673ffffffffffffffffffffffffffffffffffffffff166108fc6003549081150290604051600060405180830381858888f193505050501580156106ba573d6000803e3d6000fd5b50565b6000809054906101000a900473ffffffffffffffffffffffffffffffffffffffff1681565b600080600460003373ffffffffffffffffffffffffffffffffffffffff1673ffffffffffffffffffffffffffffffffffffffff16815260200190815260200160002054905060008111156107fd576000600460003373ffffffffffffffffffffffffffffffffffffffff1673ffffffffffffffffffffffffffffffffffffffff168152602001908152602001600020819055503373ffffffffffffffffffffffffffffffffffffffff166108fc829081150290604051600060405180830381858888f193505050506107fc5780600460003373ffffffffffffffffffffffffffffffffffffffff1673ffffffffffffffffffffffffffffffffffffffff168152602001908152602001600020819055506000915050610803565b5b60019150505b90565b60015481565b60008060008060009054906101000a900473ffffffffffffffffffffffffffffffffffffffff1660015442829250925092509250909192565b600260009054906101000a900473ffffffffffffffffffffffffffffffffffffffff1681565b600080600260009054906101000a900473ffffffffffffffffffffffffffffffffffffffff16600354915091509091565b6003548156fe61756374696f6e456e642068617320616c7265616479206265656e2063616c6c65642ea165627a7a7230582042f64ccd35fb9140b10c5696740b5ecb0032db6a2808cfcebbee5f914ec2c03d0029",
  "source": "pragma solidity >=0.4.21 <0.7.0;\n\n\n// pragma experimental ABIEncoderV2;\n\n// contract Auction {\n\n//   // 拥有者\n//   string owner = '';\n\n//   // 账户地址\n//   address account;\n\n//   struct Owner {\n//     address account;\n//   }\n//   mapping(address => Owner) ccc;\n\n//   constructor() public {\n//     //\n//   }\n\n//   // 买\n//   function buy (Owner memory _account) public payable {\n//     ccc[msg.sender] = _account;\n//   }\n\n//   // 得到拥有者\n//   function getOwner () public view returns (string memory) {\n//     return owner;\n//   }\n\n//     // 得到拥有者地址\n//   function getOwnerAddress () public view returns (address) {\n//     return account;\n//   }\n// }\n\ncontract Auction {\n    // 受益者 出售者\n    address payable public beneficiary;\n\n    // 结束时间\n    uint256 public auctionEndTime;\n\n    // 最高出价格者\n    address public highestBidder;\n    // 最高价格\n    uint256 public highestBid;\n\n    // 允许撤回之前的出价\n    // 该map记录每个竞价者的最高出价\n    mapping(address => uint256) public pendingReturns;\n\n    // 竞价结束标识位\n    bool ended;\n\n    // event 最高价发生变化时\n    event HighestBidIncreased(address bidder, uint256 amount);\n\n    // 事件二：竞价结束时\n    event AuctionEnded(address winner, uint256 amount);\n\n    constructor(uint256 _biddingTime, address payable _beneficiary) public {\n        beneficiary = _beneficiary;\n        auctionEndTime = _biddingTime;\n    }\n\n    function get()\n        public\n        view\n        returns (address _beneficiary, uint256 _auctionEndTime, uint256 _now)\n    {\n        return (beneficiary, auctionEndTime, now);\n    }\n\n    function getHighest()\n        public\n        view\n        returns (address _highestBidder, uint256 _highestBid)\n    {\n        return (highestBidder, highestBid);\n    }\n\n    // 拍卖\n    function bid() public payable {\n        // 关键字payable用来标明合约函数可以接受Ether币.\n        // require(now <= auctionEndTime, \"Auction already ended.\");\n\n        // 如果价格不超过最高价，钱会被退回.\n        require(msg.value > highestBid, \"There already is a higher bid.\");\n\n        if (highestBid != 0) {\n            pendingReturns[highestBidder] = highestBid;\n        }\n\n        highestBidder = msg.sender;\n        highestBid = msg.value;\n\n        emit HighestBidIncreased(msg.sender, msg.value);\n    }\n\n    /// 撤回一个被超过的价格.\n    function withdraw() public returns (bool) {\n        // 获取多少钱\n        uint256 amount = pendingReturns[msg.sender];\n        if (amount > 0) {\n            // 安全编写须知！！！\n            // 一定要先将map中的值清零，因为接收者可以在send()函数返回前利用接受合约重新调用withdraw()函数\n            // 从而发生“多转”的bug，即重放攻击！！！\n\n            pendingReturns[msg.sender] = 0;\n\n            if (!msg.sender.send(amount)) {\n                // No need to call throw here, just reset the amount owing\n                pendingReturns[msg.sender] = amount;\n                return false;\n            }\n        }\n        return true;\n    }\n\n    function auctionEnd() public {\n        // 在于其他合约交互时(i.e. 调用合约函数或转账) 可以分成3个阶段:\n        // 1. 检查条件；\n        // 2. 执行动作； (potentially changing conditions)\n        // 3. 与其他合约交互；\n        // 安全设计！！！\n        // 如果这三个阶段混到一块了，其他合约就可能调回当前合约从而修改状态变量。\n        // 这会导致一些过程（i.e. 以太币转账）被执行多次。\n\n        // 如果内部函数有和外部合约交互的过程，那么也该遵循以上准则。\n\n        // 1. conditions\n        require(now >= auctionEndTime, \"Auction not yet ended.\");\n        require(!ended, \"auctionEnd has already been called.\");\n\n        // 2.Effects\n        ended = true;\n        emit AuctionEnded(highestBidder, highestBid);\n\n        // 3.Interaction\n        beneficiary.transfer(highestBid);\n    }\n}\n",
  "sourcePath": "/Users/xiatian/Code/ethereum/auction/contracts/Auction.sol",
  "compiler": {
    "name": "solc",
    "version": "0.5.8+commit.23d335f2.Emscripten.clang"
  },
  "schemaVersion": "3.0.16",
  "updatedAt": "2020-04-30T10:51:19.151Z",
  "devdoc": {
    "methods": {}
  },
  "userdoc": {
    "methods": {
      "withdraw()": {
        "notice": "撤回一个被超过的价格."
      }
    }
  }
}