{
  "contractName": "Box",
  "abi": [
    {
      "anonymous": false,
      "inputs": [
        {
          "indexed": false,
          "name": "newValue",
          "type": "uint256"
        }
      ],
      "name": "ValueChanged",
      "type": "event"
    },
    {
      "constant": false,
      "inputs": [
        {
          "name": "newValue",
          "type": "uint256"
        }
      ],
      "name": "store",
      "outputs": [],
      "payable": false,
      "stateMutability": "nonpayable",
      "type": "function"
    },
    {
      "constant": true,
      "inputs": [],
      "name": "retrieve",
      "outputs": [
        {
          "name": "",
          "type": "uint256"
        }
      ],
      "payable": false,
      "stateMutability": "view",
      "type": "function"
    }
  ],
  "bytecode": "0x608060405234801561001057600080fd5b5060f48061001f6000396000f3fe6080604052348015600f57600080fd5b506004361060325760003560e01c80632e64cec11460375780636057361d146053575b600080fd5b603d607e565b6040518082815260200191505060405180910390f35b607c60048036036020811015606757600080fd5b81019080803590602001909291905050506087565b005b60008054905090565b806000819055507f93fe6d397c74fdf1402a8b72e47b68512f0510d7b98a4bc4cbdf6ac7108b3c59816040518082815260200191505060405180910390a15056fea165627a7a72305820508290e8e2bc20a13beb8262cc92aed549f6febef04e68691f3f841bae9c803c0029",
  "source": "pragma solidity >=0.4.21 <0.7.0;\n\ncontract Box {\n  uint256 private value;\n\n  // Emitted when the stored value changes\n  event ValueChanged(uint256 newValue);\n\n\n  // Stores a new value in the contract\n  function store(uint256 newValue) public {\n    value = newValue;\n    emit ValueChanged(newValue);\n  }\n\n  // Reads the last stored value\n  function retrieve() public view returns (uint256) {\n    return value;\n  }\n}",
  "sourcePath": "/Users/xiatian/Code/ethereum/auction/contracts/Box.sol",
  "compiler": {
    "name": "solc",
    "version": "0.5.8+commit.23d335f2.Emscripten.clang"
  },
  "schemaVersion": "3.0.16",
  "updatedAt": "2020-04-29T09:40:17.854Z",
  "devdoc": {
    "methods": {}
  },
  "userdoc": {
    "methods": {}
  }
}